:020000040800F2
:10000000005000208D040008DD040008DD04000815
:10001000DD040008DD040008DD0400080000000025
:10002000000000000000000000000000DD040008E7
:10003000DD04000800000000DD040008DD04000805
:10004000DD040008DD040008DD040008DD0400080C
:10005000DD040008DD040008DD040008DD040008FC
:10006000DD040008DD040008DD040008DD040008EC
:10007000DD040008DD040008DD040008DD040008DC
:10008000DD040008DD040008DD040008DD040008CC
:10009000DD040008DD040008DD040008DD040008BC
:1000A000DD040008DD040008DD040008DD040008AC
:1000B000DD040008DD040008DD040008DD0400089C
:1000C000DD040008DD040008DD040008DD0400088C
:1000D000DD040008DD040008DD040008DD0400087C
:1000E000DD040008DD04000800000000DD04000855
:1000F000DD040008DD040008DD040008DD0400085C
:10010000DD040008DD040008DD040008DD0400084B
:10011000DD040008DD040008DD040008DD0400083B
:10012000DD040008DD040008DD040008DD0400082B
:1001300010B5054C237833B9044B13B10448AFF321
:1001400000800123237010BD00000020000000008B
:100150002805000808B5034B1BB103490348AFF35A
:10016000008008BD000000000400002028050008F1
:1001700080B483B000AF0346FB710B46BB711346DE
:100180007B71FB79022B00F2BB80FB79022B78D0CC
:10019000022B00F3AE80002B02D0012B39D0A8E057
:1001A000BB79072B17D8594B1B68BA7992000F21DE
:1001B00001FA02F2D2431146544A0B401360534BEA
:1001C0001B687979BA79920001FA02F211464F4A16
:1001D0000B4313608FE0BB790F2B00F28C804B4BED
:1001E0005B68BA79083A92000F2101FA02F2D24311
:1001F0001146464A0B405360444B5B687979BA79A3
:10020000083A920001FA02F21146404A0B43536049
:1002100071E0BB79072B17D83D4B1B68BA79920068
:100220000F2101FA02F2D2431146394A0B40136002
:10023000374B1B687979BA79920001FA02F21146BC
:10024000334A0B43136058E0BB790F2B55D8304B22
:100250005B68BA79083A92000F2101FA02F2D243A0
:1002600011462B4A0B405360294B5B687979BA7968
:10027000083A920001FA02F21146254A0B435360F4
:100280003BE0BB79072B17D8224B1B68BA79920049
:100290000F2101FA02F2D24311461E4A0B401360AD
:1002A0001C4B1B687979BA79920001FA02F2114667
:1002B000184A0B43136022E0BB790F2B1FD8154B54
:1002C0005B68BA79083A92000F2101FA02F2D24330
:1002D0001146104A0B4053600E4B5B687979BA792E
:1002E000083A920001FA02F211460A4A0B4353609F
:1002F00005E000BF04E000BF02E000BF00E000BF77
:1003000000BF0C37BD4680BC704700BF00080140ED
:10031000000C01400010014080B483B000AF0346E0
:100320000A46FB711346BB71FB79022B1CD0022BD2
:1003300025DC002B02D0012B0BD020E0134BDB6817
:10034000BA79012101FA02F21146104A4B40D360FA
:1003500016E00F4BDB68BA79012101FA02F211466F
:100360000B4A4B40D3600BE00A4BDB68BA790121A2
:1003700001FA02F21146074A4B40D36000E000BF89
:1003800000BF0C37BD4680BC704700BF000801406D
:10039000000C01400010014080B400AF0D4B5B68C1
:1003A0000C4A43F0010353600A4B5B68094A23F08F
:1003B00002035360074B1B68064A23F48023136033
:1003C000044B1B68034A43F48033136000BFBD46EF
:1003D00080BC70470010024080B483B000AF034679
:1003E0000A46FB711346BB80BB881F2B28D8FB79BC
:1003F000012B0FD0022B18D0002B00D020E0134B84
:100400005B69BA88012101FA02F211460F4A0B43D7
:10041000536115E00D4BDB69BA88012101FA02F244
:1004200011460A4A0B43D3610AE0084B9B69BA881C
:10043000012101FA02F21146044A0B43936100BF05
:1004400000BF0C37BD4680BC704700BF00100240A3
:1004500080B582B000AFFFF79FFF02210220FFF7B7
:10046000BBFF022202210020FFF782FE02210020B2
:10047000FFF752FF00237B6002E07B6801337B6063
:100480007B684CF24F329342F7DDEFE70D4885462B
:10049000AFF300800C480D490D4A002302E0D45808
:1004A000C4500433C4188C42F9D30A4A0A4C0023BE
:1004B00001E013600432A242FBD300F011F8FFF711
:1004C000C7FFFEE7005000200000002000000020D1
:1004D00048050008000000201C000020FEE7000086
:1004E00070B500250C4E0D4CA41BA410A54209D1DB
:1004F00000F01AF800250A4E0A4CA41BA410A542CD
:1005000005D170BD56F8253098470135EEE756F80D
:10051000253098470135F2E74005000840050008FE
:100520004005000844050008F8B500BFF8BC08BC49
:100530009E467047F8B500BFF8BC08BC9E467047A1
:040540005501000859
:040544003101000879
:040000050800048D5E
:00000001FF
