:020000040800F2
:100000000050002081040008D1040008D104000839
:10001000D1040008D1040008D10400080000000049
:10002000000000000000000000000000D1040008F3
:10003000D104000800000000D1040008D104000829
:10004000D1040008D1040008D1040008D10400083C
:10005000D1040008D1040008D1040008D10400082C
:10006000D1040008D1040008D1040008D10400081C
:10007000D1040008D1040008D1040008D10400080C
:10008000D1040008D1040008D1040008D1040008FC
:10009000D1040008D1040008D1040008D1040008EC
:1000A000D1040008D1040008D1040008D1040008DC
:1000B000D1040008D1040008D1040008D1040008CC
:1000C000D1040008D1040008D1040008D1040008BC
:1000D000D1040008D1040008D1040008D1040008AC
:1000E000D1040008D104000800000000D104000879
:1000F000D1040008D1040008D1040008D10400088C
:10010000D1040008D1040008D1040008D10400087B
:10011000D1040008D1040008D1040008D10400086B
:10012000D1040008D1040008D1040008D10400085B
:1001300010B5054C237833B9044B13B10448AFF321
:1001400000800123237010BD00000020000000008B
:100150001C05000808B5034B1BB103490348AFF366
:10016000008008BD00000000040000201C050008FD
:1001700080B483B000AF0346FB710B46BB711346DE
:100180007B71FB79022B00F2B680FB79012B3DD00D
:10019000022B73D0002B00D0ADE0BB79072B17D812
:1001A000574B1B68BA7992000F2101FA02F2D24331
:1001B0001146534A0B401360514B1B687979BA7949
:1001C000920001FA02F211464D4A0B4313608DE092
:1001D000BB790F2B00F28A80494B5B68BA79083AE9
:1001E00092000F2101FA02F2D2431146444A0B4019
:1001F0005360434B5B687979BA79083A920001FA07
:1002000002F211463E4A0B4353606FE0BB79072B65
:1002100017D83C4B1B68BA7992000F2101FA02F201
:10022000D2431146374A0B401360364B1B6879792D
:10023000BA79920001FA02F21146324A0B43136076
:1002400056E0BB790F2B53D82E4B5B68BA79083A2E
:1002500092000F2101FA02F2D2431146294A0B40C3
:100260005360284B5B687979BA79083A920001FAB1
:1002700002F21146234A0B43536039E0BB79072B46
:1002800017D8214B1B68BA7992000F2101FA02F2AC
:10029000D24311461C4A0B4013601B4B1B687979F3
:1002A000BA79920001FA02F21146174A0B43136021
:1002B00020E0BB790F2B1DD8134B5B68BA79083A45
:1002C00092000F2101FA02F2D24311460E4A0B406E
:1002D00053600D4B5B687979BA79083A920001FA5C
:1002E00002F21146084A0B43536003E000BF02E0EC
:1002F00000BF00E000BF00BF0C37BD4680BC7047A8
:1003000000080140000C01400010014080B483B09F
:1003100000AF03460A46FB711346BB71FB79022B03
:1003200028D8FB79012B0FD0022B18D0002B00D03E
:1003300020E0134BDB68BA79012101FA02F2114681
:100340000F4A4B40D36015E00E4BDB68BA790121B0
:1003500001FA02F211460B4A4B40D3600AE00A4B05
:10036000DB68BA79012101FA02F21146064A4B40D4
:10037000D36000BF00BF0C37BD4680BC704700BFD4
:1003800000080140000C01400010014080B400AFA3
:100390000D4B5B680C4A43F0010353600A4B5B68EA
:1003A000094A23F002035360074B1B68064A23F4F3
:1003B00080231360044B1B68034A43F480331360AB
:1003C00000BFBD4680BC70470010024080B483B0BF
:1003D00000AF03460A46FB711346BB80BB881F2B48
:1003E00028D8FB79012B0FD0022B18D0002B00D07E
:1003F00020E0134B5B69BA88012101FA02F2114631
:100400000F4A0B43536115E00D4BDB69BA8801219C
:1004100001FA02F211460A4A0B43D3610AE0084B83
:100420009B69BA88012101FA02F21146044A0B4382
:10043000936100BF00BF0C37BD4680BC704700BF52
:100440000010024080B582B000AFFFF79FFF02218D
:100450000220FFF7BBFF022202210020FFF788FEE7
:1004600002210020FFF752FF00237B6002E07B683F
:1004700001337B607B684CF24F329342F7DDEFE74C
:100480000D488546AFF300800C480D490D4A002306
:1004900002E0D458C4500433C4188C42F9D30A4A39
:1004A0000A4C002301E013600432A242FBD300F0A7
:1004B00011F8FFF7C7FFFEE7005000200000002002
:1004C000000000203C050008000000201C00002067
:1004D000FEE7000070B500250C4E0D4CA41BA410C7
:1004E000A54209D100F01AF800250A4E0A4CA41BB7
:1004F000A410A54205D170BD56F8253098470135A6
:10050000EEE756F8253098470135F2E73405000844
:10051000340500083405000838050008F8B500BFA8
:10052000F8BC08BC9E467047F8B500BFF8BC08BCD4
:040530009E4670472C
:040534005501000865
:040538003101000885
:04000005080004816A
:00000001FF
